:100000003EC058C057C056C055C054C053C052C05F
:1000100051C050C04FC04FC07AC04CC04BC04AC046
:1000200049C048C047C0427566666572206F7665F4
:1000300072666C6F77206572726F723A200055415C
:100040005254204F76657272756E204572726F72CF
:100050003A200055415254204672616D6520457228
:10006000726F723A2000537472696E672073746FF6
:1000700072656420696E20464C4153480A00112481
:100080001FBECFE5D4E0DEBFCDBF10E0A0E6B0E0FC
:10009000E4EEF2E002C005900D92A837B107D9F75F
:1000A00020E0A8E7B0E001C01D92AD3BB207E1F748
:1000B000AFD016C1A5CF1F920F920FB60F92112489
:1000C0002F938F939F93EF93FF938BB19CB1887184
:1000D000E0917A00EF5FEF7120917900E21739F03B
:1000E000E0937A00F0E0E358FF4F908301C082E094
:1000F00090917800892B80937800FF91EF919F91E8
:100100008F912F910F900FBE0F901F9018951F92F7
:100110000F920FB60F9211248F939F93EF93FF933B
:1001200090917C0080917B00981761F0E0917B00BA
:10013000EF5FEF71E0937B00F0E0E356FF4F8081CB
:100140008CB901C05598FF91EF919F918F910F90BD
:100150000FBE0F901F90189510927C0010927B009C
:1001600010927A001092790097FF02C022E02BB91A
:10017000907890BD89B988E98AB986E880BD0895EC
:1001800090917A00809179009817A9F09091790068
:100190009F5F9F71E92FF0E0E358FF4F208180912E
:1001A0007800909379001092780090E0982F88273B
:1001B000820F911D089580E091E0089590917C0058
:1001C0009F5F9F7120917B009217E1F3E92FF0E090
:1001D000E356FF4F808390937C00559A0895CF9308
:1001E000DF93EC018991882311F0E8DFFBCFDF91E9
:1001F000CF910895CF93DF93FC018491EF01219675
:10020000882319F0DBDFFE01F8CFDF91CF9108954D
:10021000CF93DF93CDB7DEB727970FB6F894DEBF45
:100220000FBECDBF8FE290E097DF789480E690E03C
:10023000D6DF86E690E0DEDF4AE0BE016F5F7F4FEB
:1002400086E890E01AD0CE010196C9DF8DE0B6DFD6
:1002500097DF8C0190FDFCCF94FF03C083E590E015
:10026000C9DF13FF03C08EE390E0C4DF11FF03C0BA
:1002700086E290E0BFDF802FEACFBB274A3031F41F
:10028000992322F4BDE2909581959F4F01C0BB2731
:10029000FB015527AA27880F991FAA1FA41710F042
:1002A000A41B83955051B9F7A05DAA3308F0A95D4E
:1002B000A193009779F7B111B1931192CB0100C0CE
:1002C000DC01FC01672F71917723E1F7329704C0BD
:1002D0007C916D9370836291AE17BF07C8F3089548
:0402E000F894FFCFC0
:1002E400537472696E672073746F72656420696EEB
:0802F400205352414D0A0000A5
:00000001FF
