:1000000012C021C020C01FC01EC01DC01CC01BC00C
:100010001AC019C018C0D9C004C115C014C013C07B
:1000200012C011C010C011241FBECFE5D4E0DEBF46
:10003000CDBF20E0A0E6B0E001C01D92A53AB20716
:10004000E1F702D07BC2DCCFCF93DF93CDB7DEB731
:100050002F970FB6F894DEBF0FBECDBF84E390E0BC
:1000600024E330E0F90120812062FC01208387E64F
:1000700090E0FCD078940ED189838981882F90E01C
:1000800088279071892B09F09EC08981882F90E084
:1000900088279870892B09F096C08981882F90E075
:1000A00088279270892B09F08EC08981882F90E073
:1000B00088279170892B09F086C08981883651F490
:1000C00085E390E025E330E0F90120812062FC0126
:1000D00020830CC089818C3649F485E390E025E3C8
:1000E00030E0F90120812F75FC01208380E090E849
:1000F000ABE3B5E48A839B83AC83BD8320E030E02F
:100100004AE753E46A817B818C819D818CD1DC013B
:10011000CB018E839F83A887B98720E030E040E839
:100120005FE36E817F8188859985FCD088232CF4DC
:1001300081E090E09B878A873BC020E03FEF4FE75C
:1001400057E46E817F818885998569D118163CF5C1
:1001500020E030E040E251E46A817B818C819D8126
:1001600062D1DC01CB01BC01CD01E0D0DC01CB01CF
:100170009B878A870FC089E190E09D878C878C855B
:100180009D850197F1F79D878C878A859B850197CF
:100190009B878A878A859B85892B69F715C06E8125
:1001A0007F8188859985C2D0DC01CB019B878A87B6
:1001B0008A859B859F878E878E859F850197F1F71E
:1001C0009F878E8758CF000056CF1F920F920FB691
:1001D0000F9211242F938F939F93EF93FF938BB1E3
:1001E0009CB18871E0916200EF5FEF712091610036
:1001F000E21739F0E0936200F0E0EB59FF4F908393
:1002000001C082E090916000892B80936000FF9193
:10021000EF919F918F912F910F900FBE0F901F9094
:1002200018951F920F920FB60F9211248F939F93E0
:10023000EF93FF939091640080916300981761F0B1
:10024000E0916300EF5FEF71E0936300F0E0EB5744
:10025000FF4F80818CB901C05598FF91EF919F911C
:100260008F910F900FBE0F901F9018951092640001
:1002700010926300109262001092610097FF02C01A
:1002800022E02BB9907890BD89B988E98AB986E8CF
:1002900080BD089590916200809161009817A9F047
:1002A000909161009F5F9F71E92FF0E0EB59FF4F44
:1002B000208180916000909361001092600090E036
:1002C000982F8827820F911D089580E091E008956E
:1002D000909164009F5F9F71209163009217E1F3FA
:1002E000E92FF0E0EB57FF4F808390936400559A1D
:1002F0000895CF93DF93EC018991882311F0E8DF13
:10030000FBCFDF91CF910895CF93DF93FC018491D0
:10031000EF012196882319F0DBDFFE01F8CFDF9192
:10032000CF9108952FD008F481E0089557D088F038
:100330009F5790F0B92F9927B751A0F0D1F0660FD1
:10034000771F881F991F1AF0BA95C9F712C0B130EC
:1003500081F05ED0B1E008955BC0672F782F8827C9
:10036000B85F39F0B93FCCF3869577956795B3952B
:10037000D9F73EF490958095709561957F4F8F4F9A
:100380009F4F0895990F0008550FAA0BE0E8FEEF64
:1003900016161706E807F907C0F012161306E40749
:1003A000F50798F0621B730B840B950B39F40A2642
:1003B00061F0232B242B252B21F408950A2609F420
:1003C000A140A6958FEF811D811D089557FD90587E
:1003D000440F551F59F05F3F71F04795880F97FB09
:1003E000991F61F09F3F79F08795089512161306C3
:1003F0001406551FF2CF4695F1DF08C016161706F2
:100400001806991FF1CF8695710561050894089526
:10041000E894BB2766277727CB0197F90895B2DFC9
:1004200008F48FEF08950BD078C069D028F06ED013
:1004300018F0952309F05AC05FC01124EACFC6DF37
:10044000A0F3959FD1F3950F50E0551F629FF001E7
:10045000729FBB27F00DB11D639FAA27F00DB11D40
:10046000AA1F649F6627B00DA11D661F829F2227C9
:10047000B00DA11D621F739FB00DA11D621F839F50
:10048000A00D611D221F749F3327A00D611D231F26
:10049000849F600D211D822F762F6A2F11249F5774
:1004A00050408AF0E1F088234AF0EE0FFF1FBB1F97
:1004B000661F771F881F91505040A9F79E3F510536
:1004C00070F014C0A6CF5F3FECF3983EDCF3869546
:1004D00077956795B795F795E7959F5FC1F7FE2BE1
:1004E000880F911D9695879597F9089597F99F67BD
:1004F00080E870E060E008959FEF80EC08950024AC
:100500000A941616170618060906089500240A9478
:1005100012161306140605060895092E0394000CFE
:1005200011F4882352F0BB0F40F4BF2B11F460FF8D
:1005300004C06F5F7F4F8F4F9F4F0895F894FFCF98
:00000001FF
