:1000000012C021C020C01FC01EC01DC01CC01BC00C
:100010001AC01AC018C017C016C015C014C013C02B
:1000200012C011C010C011241FBECFE5D4E0DEBF46
:10003000CDBF20E0A0E6B0E001C01D92AC36B20713
:10004000E1F783D011C4DCCF1F920F9200905F00C4
:100050000F9211242F933F934F935F936F937F934E
:100060008F939F93AF93BF93EF93FF93CF93DF93C0
:10007000CDB7DEB72697DEBFCDBF85E390E025E3A1
:1000800030E0F90120812F7EFC0120838091600007
:10009000909161000196909361008093600080913F
:1000A000600090916100803D9340A4F180916200D6
:1000B0009091630001969093630080936200109288
:1000C0006100109260001A8219821C821B82CE018C
:1000D00003969E012F5F3F4FB9012BD1892B61F40D
:1000E0008B819C81909365008093640089819A81C3
:1000F0009093670080936600809162009091630006
:100100002CE330E0B9017DD2892B21F410926300F9
:1001100010926200000026960FB6F894DEBF0FBE64
:10012000CDBFDF91CF91FF91EF91BF91AF919F91A3
:100130008F917F916F915F914F913F912F910F9090
:1001400000925F000F901F901895CF93DF93CDB76B
:10015000DEB72E970FB6F894DEBF0FBECDBF84E397
:1001600090E024E330E0F90120812061FC0120834C
:1001700085E390E025E330E0F90120812061FC0176
:10018000208380E090E0AAE7B4E489839A83AB837C
:10019000BC8320E030E04AE753E469817A818B81B7
:1001A0009C81D7D2DC01CB018D839E83AF83B8873E
:1001B00020E030E040E85FE36D817E818F819885AB
:1001C00047D288232CF481E090E09A8789873BC04E
:1001D00020E03FEF4FE757E46D817E818F81988566
:1001E000B4D218163CF520E030E040E251E46981D9
:1001F0007A818B819C81ADD2DC01CB01BC01CD0128
:100200002BD2DC01CB019A8789870FC089E190E06E
:100210009C878B878B859C850197F1F79C878B87C3
:1002200089859A8501979A87898789859A85892BF7
:1002300069F713C06D817E818F8198850DD2DC01B5
:10024000CB019A87898789859A859E878D878D8539
:100250009E850197F1F79E878D877894FFCFCF9386
:10026000DF93CDB7DEB729970FB6F894DEBF0FBE88
:10027000CDBF8FE590E0FC0180818D83F89482E50D
:1002800090E0FC018081882F90E0A0E0B0E08983BD
:100290009A83AB83BC8388E590E0FC018081882F42
:1002A00090E081709927892B81F089819A81AB81B7
:1002B000BC81892B8A2B8B2B41F480E091E0A0E05C
:1002C000B0E089839A83AB83BC838091680090916E
:1002D0006900A0916A00B0916B008E839F83A8870C
:1002E000B9878FE590E02D81FC0120838E819F816D
:1002F000A885B9852227382F492F5A2F89819A81BD
:10030000AB81BC81820F931FA41FB51F880F991F5B
:10031000AA1FBB1F880F991FAA1FBB1FBC01CD01BD
:1003200029960FB6F894DEBF0FBECDBFDF91CF91F7
:100330000895EF92FF920F931F93CF93DF93CDB762
:10034000DEB766970FB6F894DEBF0FBECDBF9C8BAD
:100350008B8B7E8B6D8B87E089831A821C821B823C
:100360000EC09E01225F3F4F8B819C81820F931FA5
:10037000FC0110828B819C8101969C838B838B81F5
:100380009C81059774F384E390E024E330E0F90165
:1003900020812062FC01208385E390E025E330E0AA
:1003A000F90120812F7DFC01208360EA7CE880E058
:1003B00090E001D185E390E025E330E0F901208170
:1003C0002062FC01208360E570E080E090E0F3D0E3
:1003D00084E390E024E330E0F90120812F7DFC01EB
:1003E000208380E197E29E838D830CC08D819E8166
:1003F0009C01215031093E832D83892B19F48EEF06
:100400009FEFCCC083E390E0FC018081882F90E0D7
:1004100080729927892B51F380E197E29E838D8327
:100420000CC08D819E819C01215031093E832D831A
:10043000892B19F48EEF9FEFB1C083E390E0FC01AC
:100440008081882F90E080729927892B51F7188638
:100450001F8282C080E197E29E838D830CC08D81D4
:100460009E819C01215031093E832D83892B19F4F3
:100470008EEF9FEF93C083E390E0FC018081882F93
:1004800090E080729927892B51F3E9DEDC01CB01E2
:1004900089879A87AB87BC8780E197E29E838D83AB
:1004A0000CC08D819E819C01215031093E832D839A
:1004B000892B19F48EEF9FEF71C083E390E0FC016C
:1004C0008081882F90E080729927892B51F7C7DEB1
:1004D0009B01AC0189859A85AB85BC8579018A0130
:1004E000E81AF90A0A0B1B0BD801C7018997A10565
:1004F000B10508F18A81882F90E02A81222F30E00F
:10050000AE01425F5F4F240F351FF9012081622F3A
:100510002981422F50E021E030E002C0220F331F3A
:100520004A95E2F7262B422F9E01225F3F4F820F12
:10053000931FFC0140838981882331F487E08983FC
:100540008A818F5F8A8303C08981815089838F81EB
:100550009885019698878F838F81988588970CF46A
:1005600079CF8E85282F30E08D899E89FC013183DB
:1005700020838889282F30E08B899C89FC01318376
:1005800020839E858889890F8D879A898D85981704
:1005900019F08FEF9FEF02C080E090E066960FB6F3
:1005A000F894DEBF0FBECDBFDF91CF911F910F91A9
:1005B000FF90EF900895CF93DF9300D000D0CDB798
:1005C000DEB769837A838B839C8301C000008981B5
:1005D0009A81AB81BC819C01AD0121503109410957
:1005E000510929833A834B835C83892B8A2B8B2B7C
:1005F00069F700000F900F900F900F90DF91CF914F
:10060000089597FB072E16F4009406D077FD08D0C6
:100610000BD007FC05D03EF4909581959F4F08952F
:10062000709561957F4F0895AA1BBB1B51E107C0D0
:10063000AA1FBB1FA617B70710F0A61BB70B881F72
:10064000991F5A95A9F780959095BC01CD01089501
:100650002FD008F481E0089557D088F09F5790F08C
:10066000B92F9927B751A0F0D1F0660F771F881FD7
:10067000991F1AF0BA95C9F712C0B13081F05ED057
:10068000B1E008955BC0672F782F8827B85F39F0F5
:10069000B93FCCF3869577956795B395D9F73EF436
:1006A00090958095709561957F4F8F4F9F4F0895DE
:1006B000990F0008550FAA0BE0E8FEEF1616170673
:1006C000E807F907C0F012161306E407F50798F0DB
:1006D000621B730B840B950B39F40A2661F0232BF4
:1006E000242B252B21F408950A2609F4A140A69570
:1006F0008FEF811D811D089557FD9058440F551FA0
:1007000059F05F3F71F04795880F97FB991F61F093
:100710009F3F79F087950895121613061406551F0A
:10072000F2CF4695F1DF08C0161617061806991F76
:10073000F1CF86957105610508940895E894BB276B
:1007400066277727CB0197F90895B2DF08F48FEF7A
:1007500008950BD078C069D028F06ED018F095239A
:1007600009F05AC05FC01124EACFC6DFA0F3959FFD
:10077000D1F3950F50E0551F629FF001729FBB2788
:10078000F00DB11D639FAA27F00DB11DAA1F649F34
:100790006627B00DA11D661F829F2227B00DA11DE7
:1007A000621F739FB00DA11D621F839FA00D611D6D
:1007B000221F749F3327A00D611D231F849F600D8E
:1007C000211D822F762F6A2F11249F5750408AF0C7
:1007D000E1F088234AF0EE0FFF1FBB1F661F771F53
:1007E000881F91505040A9F79E3F510570F014C0EA
:1007F000A6CF5F3FECF3983EDCF38695779567953F
:10080000B795F795E7959F5FC1F7FE2B880F911D70
:100810009695879597F9089597F99F6780E870E016
:1008200060E008959FEF80EC089500240A94161666
:10083000170618060906089500240A9412161306CE
:10084000140605060895092E0394000C11F488235C
:1008500052F0BB0F40F4BF2B11F460FF04C06F5F78
:0C0860007F4F8F4F9F4F0895F894FFCFFB
:00000001FF
